:020000040800F2
:10000000C0060020CD0100087F100008F50E000892
:100010007D100008CF020008151300080000000042
:100020000000000000000000000000008310000835
:10003000D1020008000000008110000885100008AF
:10004000E7010008E7010008E7010008E7010008F0
:10005000E7010008E7010008E7010008E7010008E0
:10006000D3020008D9020008E7010008E7010008F0
:10007000E7010008E7010008E7010008E7010008C0
:10008000E7010008E7010008E7010008E7010008B0
:10009000E7010008E7010008E7010008E7010008A0
:1000A000E7010008E7010008E7010008E701000890
:1000B000E7010008E7010008E7010008E701000880
:1000C000E7010008E7010008E7010008E701000870
:1000D000E7010008E7010008E7010008E701000860
:1000E000E7010008E7010008E7010008E701000850
:1000F000E7010008E7010008E7010008E701000840
:10010000E7010008E7010008E7010008E70100082F
:10011000E7010008E7010008E7010008E70100081F
:10012000E7010008E7010008E7010008E70100080F
:1001300000F002F800F03AF80AA090E8000C8244BF
:100140008344AAF10107DA4501D100F02FF8AFF29C
:10015000090EBAE80F0013F0010F18BFFB1A43F0A5
:100160000103184788120000A8120000103A24BFAB
:1001700078C878C1FAD8520724BF30C830C144BF0C
:1001800004680C607047000000230024002500264E
:10019000103A28BF78C1FBD8520728BF30C148BFEA
:1001A0000B6070471FB51FBD10B510BD00F058F8AB
:1001B0001146FFF7F7FF01F0BFF800F076F803B43F
:1001C000FFF7F2FF03BC00F07BF80000094880470E
:1001D00009480047FEE7FEE7FEE7FEE7FEE7FEE729
:1001E000FEE7FEE7FEE7FEE704480549054A064B41
:1001F00070470000E710000831010008C00000202F
:10020000C0060020C0020020C00200204FF0000203
:1002100000B5134694469646203922BFA0E80C50FC
:10022000A0E80C50B1F12001BFF4F7AF090728BFD7
:10023000A0E80C5048BF0CC05DF804EB890028BF53
:1002400040F8042B08BF704748BF20F8022B11F07C
:10025000804F18BF00F8012B7047704770477047F8
:10026000754600F029F8AE4605006946534620F071
:100270000700854618B020B5FFF7B6FFBDE820405F
:100280004FF000064FF000074FF000084FF0000B52
:1002900021F00701AC46ACE8C009ACE8C009ACE805
:1002A000C009ACE8C0098D4670470446AFF3008032
:1002B0002046FFF784FF00000048704760000020E0
:1002C00001491820ABBEFEE7260002007047FEE79A
:1002D0007047042000F016B8082000F013B872B67A
:1002E000FEE7000005480168491C01600449002040
:1002F000096848638863C863086470470000002089
:1003000018000020044910B50A68024202D00860B3
:10031000FFF7E8FF10BD0000140401402DE9F04F85
:10032000DFF8D491002409F1040A0AF1040B2346F2
:100330000F270BF1040ED8E00125A5402A40AA4260
:100340007AD16E4ED1F804C0ACEB0608B44532D079
:1003500014DCBCF1030F3AD009DCBCF1000F2AD049
:10036000BCF1010F1CD0BCF1020F31D11DE0BCF17A
:10037000110F17D0BCF1120F2AD119E0B8F5881F60
:1003800019D006DCB8F5803F15D0B8F5801F1FD115
:1003900011E0B8F5001F0ED0B8F5041F18D10AE01F
:1003A000CB6815E0CB681B1D12E0CB6808330FE06B
:1003B000CB680C330CE08B682BB1012B4FF008039A
:1003C00003D0456104E0042302E0056100E000235E
:1003D000FF2A01D8064601E000F104064FEA840531
:1003E00001D9A5F12005D6F8008007FA05FC28EA16
:1003F0000C0803FA05F548EA0508C6F800804D68C0
:10040000ED0071D53E4DAE6946F00106AE61AD69B5
:100410003C4D24F0030606EB050CDCF80850A6075B
:10042000360F07FA06F825EA0805DFF8DC804045B4
:1004300003D14FF0000825E056E0DFF8D0804045BA
:1004400002D14FF001081DE0DFF8C480404502D121
:100450004FF0020816E0DFF8BC80404502D14FF0B3
:1004600003080FE0DFF8B080404502D14FF00408E8
:1004700008E0DFF8A880404502D14FF0050801E010
:100480004FF0060808FA06F848EA0508CCF8088094
:100490004D68D9F80060ED03002D4D4601DA164392
:1004A00000E096432E604D68DAF80060AD03002D41
:1004B000554601DA164300E096432E604D68DBF89E
:1004C0000060ED02002D5D4601DA164300E0964320
:1004D0002E604D68DEF80060AD02002D754601DA31
:1004E000164300E096432E60641C0A6832FA04F555
:1004F0007FF422AFBDE8F08F00040140000011102E
:10050000001002400000014000080140000C0140C2
:10051000001001400014014000180140001C01407F
:100520008068084000D0012070470AB1016170471F
:100530000904FBE7014880687047000008000020BC
:1005400002488168027811448160704708000020E9
:10055000074810B5016841F010010160032000F068
:1005600065F80F2000F006F800F024F8002010BD18
:100570000020024070B50D4D04464FF47A71287882
:10058000B1FBF0F00A490968B1FBF0F000F0BEFAE7
:1005900048B9102C07D200222146501E00F026F840
:1005A00000206C6070BD012070BD000008000020BC
:1005B000140000200548816941F0010181618169D1
:1005C000C16941F08051C161C069704700100240AB
:1005D00000280ADB00F01F020121914040094FF082
:1005E000E02202EB8000C0F800117047F0B40E4B1F
:1005F0001B680D46C3F30223C3F10706042E00D97E
:100600000426191D072901D2002300E0DB1E012466
:1006100004FA06F1491E294099409C40641E14408A
:100620002143F0BC00F078BE0CED00E0064900F07C
:10063000070208684FF6FF03184040EA0220034A09
:1006400010430860704700000CED00E00000FA0560
:100650002DE9F0470F46050061D0434E306800F0A9
:100660000700B84209D2306820F0070038433060F4
:10067000306800F00700B84251D128683B4C810730
:1006800012D5400703D5606840F4E06060602878C8
:10069000000703D5606840F4605060606068A96836
:1006A00020F0F000084360602878C00728D0686810
:1006B000012810D02168022810D0890700292EDADD
:1006C000616821F0030101436160FFF733FF804659
:1006D00041F288390DE021688903EFE78901EDE7F0
:1006E000FFF728FFA0EB0801494502D90320BDE828
:1006F000F0876068696800F00C00B0EB810FEFD103
:10070000306800F00700B8420BD9306820F00700CD
:1007100038433060306800F00700B84201D0012053
:10072000E5E72878400705D56068E96820F4E060CF
:10073000084360602878000706D56068296920F4BE
:10074000605040EAC100606000F018F86168084A33
:10075000C1F30311515CC8400649086006480068AF
:10076000FFF708FF0020C2E700200240001002400F
:10077000DC130008140000200C00002014A185B038
:10078000D1E90023D1E90201CDE9020114A0CDE9AC
:100790000023144A006804905168134801F00C03C8
:1007A000042B10D0082B0ED1C1F38343C9031DF8CD
:1007B00003000AD5516804AAC1F34041515C0A4ABA
:1007C0005043B0FBF1F005B0704708494843FAE7E1
:1007D00002030405060708090A0B0C0D0E0F101082
:1007E000010200000010024000127A0000093D00E2
:1007F0002DE9F05F040070D02078BF4DC00749D0CC
:100800006868C0F38100012807D06868C0F38100E0
:10081000022809D16868C00306D52868800339D545
:1008200060680028E7D035E06068B0F5803F0BD005
:1008300010B1B0F5A02F11D0286820F480302860C6
:10084000286820F4802002E0286840F48030286086
:10085000606890B1FFF76EFE06460AE0286840F433
:1008600080202860F0E700BFFFF764FE801B64284B
:1008700072D828688003F7D50CE0FFF75BFE0646C8
:1008800005E000BFFFF756FE801B6428F0D82868FB
:100890008003F7D42078994E80074FF001094FF07C
:1008A000000839D5686810F00C0F07D06868C0F3ED
:1008B0008100022809D16868C00306D4286880072F
:1008C00014D52069012808D110E02069B0B1C6F81C
:1008D0000090FFF72FFE074605E008E1FFF72AFE2C
:1008E000C01B0228C4D828688007F7D5286861692A
:1008F00020F0F80040EAC10028600DE0C6F8008052
:10090000FFF718FE074604E0FFF714FEC01B02289D
:10091000AED828688007F7D4207800072CD578480F
:10092000A169D1B1C0F80090FFF704FE074604E0CA
:10093000FFF700FEC01B02280ED8686A8007F7D5B3
:1009400070484FF4FA510068B0FBF1F000BF0100AD
:10095000A0F10100FAD10FE07EE0C0F80080FFF7BF
:10096000E9FD074605E000BFFFF7E4FDC01B0228D4
:1009700072D8686A8007F7D4207840075DD5E869A7
:100980000027C00005D4E86940F08050E861E869BC
:1009900001275D480168C90512D40168834641F406
:1009A00080710160FFF7C6FD824605E0FFF7C2FDDA
:1009B000A0EB0A0064284FD8DBF80000C005F5D58D
:1009C000E06801280AD008B1052813D0286A20F071
:1009D00001002862286A20F0040002E0286A40F042
:1009E00001002862E06841F2883B98B1FFF7A2FD60
:1009F00082460BE0286A40F004002862EEE700BF60
:100A0000FFF798FDA0EB0A0159455CD8286A8007DA
:100A1000F6D50CE0FFF78EFD824605E0FFF78AFD74
:100A2000A0EB0A0159454ED8286A8007F6D4012F59
:100A300003D1E86920F08050E861E06990B369680B
:100A4000C1F38101022945D00228C6F8608004D094
:100A5000FFF770FD044639E035E0FFF76BFD074610
:100A600005E000BFFFF766FDC01B02282BD82868F1
:100A70008001F7D4206AB0F5803F05D16868A1688D
:100A800020F4003008436860D4E90801084369682D
:100A900021F4741108436860C6F86090FFF74AFDBE
:100AA000044606E025E000BFFFF744FD001B0228D6
:100AB00009D828688001F7D51BE000BFFFF73AFD91
:100AC000001B022802D90320BDE8F09F286880019E
:100AD000F4D40EE00128F7D06868226A00F480316F
:100AE000914204D1616A00F47010884201D0012063
:100AF000EAE70020E8E70000001002400000424260
:100B000080044242140000200070004010B5401ED6
:100B1000B0F1807F01D3012010BD4FF0E02460616F
:100B20000F21601700F0F8FB0020A0610720206172
:100B3000002010BD70B590F83C20012A2BD0012474
:100B400080F83C40022280F83D2003685A689D6886
:100B500022F070060A6832435A60104B02689A42CB
:100B60000ED00F4B9A420BD0B2F1804F08D00D4BF4
:100B70009A4205D00C4B9A4202D00C4B9A4204D1B7
:100B8000496825F08003194391603C30447000218E
:100B90000170084670BD022070BD0000002C0140AD
:100BA000003401400004004000080040000C0040F8
:100BB00090F83D10012901D001207047022180F8F2
:100BC0003D1000680E4988420ED00E4988420BD075
:100BD000B0F1804F08D00C49884205D00B498842BB
:100BE00002D00B49884204D1816801F0070106292F
:100BF00003D0016841F0010101600020704700004E
:100C0000002C014000340140000400400008004076
:100C1000000C00401FB50021009101910291039149
:100C20000068104988421BD10F48816941F00401D6
:100C300081618169816941F00801816180690224D3
:100C4000C020CDE90004694608480394FFF766FB1D
:100C50000320CDE90004694605480394FFF75EFBD5
:100C60001FBD0000000400400010024000080140C9
:100C7000000C014010B5044690F83C0001280AD051
:100C8000012084F83C0042B1042A0AD0082A0CD082
:100C90000C2A11D10DE0022010BD206800F078FA76
:100CA0000AE0206800F0A4FA06E0206800F0D6FA16
:100CB00002E0206800F006FB002084F83C0010BD34
:100CC00010B5040003D094F83D0010B107E00120F6
:100CD00010BD002084F83C00204600F015F80220EA
:100CE00084F83D00211D206800F0FEF901203D340C
:100CF00060726070A070E07020716071A071E0712E
:100D000020722070002010BD704770B5044690F826
:100D10003C000D4601280AD0012084F83C0042B175
:100D2000042A18D0082A2AD00C2A4DD139E00220F2
:100D300070BD206800F02CFA2068816941F008013C
:100D400081612068816921F00401816120688169E5
:100D50002A69114311E0206800F04AFA206881698D
:100D600041F4006181612068816921F480618161C1
:100D7000206881692A6941EA0221816124E02068B2
:100D800000F06CFA2068C16941F00801C161206877
:100D9000C16921F00401C1612068C1692A69114358
:100DA00011E0206800F08EFA2068C16941F400610A
:100DB000C1612068C16921F48061C1612068C16995
:100DC0002A6941EA0221C161002084F83C0070BD1B
:100DD00010B5040003D094F83D0010B107E00120E5
:100DE00010BD002084F83C00204600F015F80220D9
:100DF00084F83D00211D206800F076F901203D3483
:100E000060726070A070E07020716071A071E0711C
:100E100020722070002010BD00680549884205D16D
:100E20000448C16941F00201C161C0697047000016
:100E3000000400400010024010B5044649B10429E6
:100E40000AD008290BD094F8410001280AD00120CB
:100E500010BD94F83E00F8E794F83F00F5E794F8E9
:100E60004000F2E7022081B3042932D0082933D0B0
:100E700084F841000122206800F07CF918492068BC
:100E8000184A884201D0904203D1436C43F4004396
:100E90004364206888420DD090420BD0B0F1804F5F
:100EA00008D01149884205D01049884202D0104923
:100EB000884204D1816801F00701062903D0016846
:100EC00041F001010160002010BDFFE784F83E0001
:100ED000D0E784F83F00CDE784F84000CAE700007F
:100EE000002C014000340140000400400008004094
:100EF000000C0040FEE700002DE9FF4100242C48D3
:100F00000094019402940394816941F0200181616D
:100F10008169816941F0040181618169816941F0E0
:100F20000801816180690122DFF88880D60231469C
:100F30004046FFF7FAFA0C2000901F480225CDE941
:100F4000010569464046FFF7E9F928038DE83100BD
:100F50001A4F69463846FFF7E1F9E8028DE831009B
:100F600069463846FFF7DAF9E801CDE900040124C3
:100F7000694640460294FFF7D1F9CDE9006469461D
:100F80004046CDE90245FFF7C9F900221146082085
:100F9000FFF72CFB0820FFF71BFB0022114609205E
:100FA000FFF724FB0920FFF713FBBDE8FF810000DA
:100FB000001002400008014000002110000C014018
:100FC00070B58AB0002407941C2168460894FFF786
:100FD0001DF9294D2748286040F2DB50C5E901047E
:100FE0006320C5E903042846AC61FFF7F1FE08B1B0
:100FF000FFF775F92048FFF763FE08B1FFF76FF9B7
:10100000079407A91C480894FFF794FD08B1FFF75F
:1010100066F96026CDE9006402940022694616480C
:101020000494FFF772FE08B1FFF759F904226946EC
:1010300011480094FFF71EFE08B1FFF750F9286829
:10104000816941F400618161082269460A4800967D
:10105000FFF75BFE08B1FFF742F90C22694606482C
:10106000FFF753FE08B1FFF73AF90348FFF7D2FD47
:101070000AB070BD0004004018000020FEE7FEE743
:1010800070477047FFF75CBA30B58FB028216846CB
:10109000FFF7BCF814210AA8FFF7B8F801210804EB
:1010A000CDE900100024029402250491CDE90750F7
:1010B0004FF4E01009906846FFF79AFB08B172B64A
:1010C000FEE70F20CDE90A054FF48060CDE90C4022
:1010D00002210AA80E94FFF7BBFA002801D072B6CD
:1010E000FEE70FB030BD7047F0B502681C4B1D4DD8
:1010F0001D4E1E4F1E4C4FF0804C984209D0A0420E
:1011000007D0604505D0A84203D0B04201D0B84214
:1011100004D122F0700E4A6842EA0E02984209D0C9
:10112000A04207D0604505D0A84203D0B04201D00C
:10113000B84203D122F44075CA682A434D6922F0AF
:1011400080022A4302608A68C2620A688262984208
:1011500001D0A04201D10969016301214161F0BDC3
:10116000002C01400004004000080040000C00403A
:101170000034014010B501F01F030121046A9940B9
:101180008C430462016A9A401143016210BD000061
:10119000F0B5026A22F001020262036A42688469C1
:1011A000124E24F073050C682C4323F002058B6863
:1011B0002B430D4DA84201D0B04205D123F00807C2
:1011C000CB683B4323F00403A84201D0B04205D1D1
:1011D0004D6922F4407215438A692A434260846152
:1011E000496841630362F0BD002C014000340140B6
:1011F000F0B5026A22F010020262026A4368846952
:101200000D6824F4E64444EA05248D6822F02002A7
:1012100042EA05120F4D104EA84201D0B04206D14D
:10122000CF6822F0800242EA071222F04002A84270
:1012300001D0B04207D14D6923F4406343EA8503EE
:101240008D6943EA85034360846149688163026272
:10125000F0BD0000002C014000340140F0B5026AEE
:1012600022F480720262026A4368C46922F4007246
:1012700024F073050C68124E2C438D6842EA052257
:101280000E4DA84201D0B04206D1CF6822F40062D0
:1012900042EA072222F48062A84201D0B04207D17C
:1012A0004D6923F4405343EA05138D6943EA05135E
:1012B0004360C4614968C1630262F0BD002C014013
:1012C0000034014030B5026A22F480520262046A9E
:1012D0004268C3690D6823F4E64343EA05238D6839
:1012E00024F4005444EA0534084DA84202D0084DC5
:1012F000A84204D14D6922F4804242EA851242603C
:10130000C36149680164046230BD0000002C0140E3
:1013100000340140FEE700000907090E002801DB48
:10132000034A02E0034A00F00F00815470470000B6
:1013300000E400E014ED00E0FFF70AF9FFF7A4FE77
:10134000FFF7DAFDFFF73CFE00212148FFF774FDAF
:1013500004211F48FFF770FD08211D48FFF76CFDB1
:101360000C211B48FFF768FD1948FFF721FC194CB9
:10137000194DDFF85C904FF4805A4FF40056002767
:101380004FF0280831462846FFF7CAF860605146FA
:101390002846FFF7C5F8206031462846FFF7C0F819
:1013A00001280CD031462846FFF7BAF8D9F80000DA
:1013B000C0F834808763C763C0F84080E2E7D9F89B
:1013C00000004763C0F83880C0F83C800764D9E764
:1013D0001800002000000020000C01400000000068
:1013E0000000000001020304060708090C140008AD
:1013F00000000020180000006C0100082414000800
:1014000018000020A8060000880100080000000065
:1014100000000000010000001000000000000000BB
:041420000024F400B0
:0400000508000131BD
:00000001FF
